{
  "contractName": "AidTrace",
  "abi": [
    {
      "constant": true,
      "inputs": [
        {
          "internalType": "uint256",
          "name": "",
          "type": "uint256"
        }
      ],
      "name": "deployedEvents",
      "outputs": [
        {
          "internalType": "contract DonationEvent",
          "name": "",
          "type": "address"
        }
      ],
      "payable": false,
      "stateMutability": "view",
      "type": "function"
    },
    {
      "constant": false,
      "inputs": [
        {
          "internalType": "uint256",
          "name": "minimum",
          "type": "uint256"
        },
        {
          "internalType": "string",
          "name": "name",
          "type": "string"
        }
      ],
      "name": "createEvent",
      "outputs": [],
      "payable": false,
      "stateMutability": "nonpayable",
      "type": "function"
    },
    {
      "constant": true,
      "inputs": [],
      "name": "getDeployedEvents",
      "outputs": [
        {
          "internalType": "contract DonationEvent[]",
          "name": "",
          "type": "address[]"
        }
      ],
      "payable": false,
      "stateMutability": "view",
      "type": "function"
    }
  ],
  "bytecode": "0x608060405234801561001057600080fd5b50611461806100206000396000f3fe608060405234801561001057600080fd5b50600436106100415760003560e01c80633812783e14610046578063a1d255e1146100a5578063eade22f61461016a575b600080fd5b61004e6101d8565b6040518080602001828103825283818151815260200191508051906020019060200280838360005b83811015610091578082015181840152602081019050610076565b505050509050019250505060405180910390f35b610168600480360360408110156100bb57600080fd5b8101908080359060200190929190803590602001906401000000008111156100e257600080fd5b8201836020820111156100f457600080fd5b8035906020019184600183028401116401000000008311171561011657600080fd5b91908080601f016020809104026020016040519081016040528093929190818152602001838380828437600081840152601f19601f820116905080830192505050505050509192919290505050610266565b005b6101966004803603602081101561018057600080fd5b81019080803590602001909291905050506103aa565b604051808273ffffffffffffffffffffffffffffffffffffffff1673ffffffffffffffffffffffffffffffffffffffff16815260200191505060405180910390f35b6060600080548060200260200160405190810160405280929190818152602001828054801561025c57602002820191906000526020600020905b8160009054906101000a900473ffffffffffffffffffffffffffffffffffffffff1673ffffffffffffffffffffffffffffffffffffffff1681526020019060010190808311610212575b5050505050905090565b6000828233604051610277906103e6565b80848152602001806020018373ffffffffffffffffffffffffffffffffffffffff1673ffffffffffffffffffffffffffffffffffffffff168152602001828103825284818151815260200191508051906020019080838360005b838110156102ec5780820151818401526020810190506102d1565b50505050905090810190601f1680156103195780820380516001836020036101000a031916815260200191505b50945050505050604051809103906000f08015801561033c573d6000803e3d6000fd5b50905060008190806001815401808255809150509060018203906000526020600020016000909192909190916101000a81548173ffffffffffffffffffffffffffffffffffffffff021916908373ffffffffffffffffffffffffffffffffffffffff16021790555050505050565b600081815481106103b757fe5b906000526020600020016000915054906101000a900473ffffffffffffffffffffffffffffffffffffffff1681565b611039806103f48339019056fe608060405234801561001057600080fd5b506040516110393803806110398339818101604052606081101561003357600080fd5b81019080805190602001909291908051604051939291908464010000000082111561005d57600080fd5b8382019150602082018581111561007357600080fd5b825186600182028301116401000000008211171561009057600080fd5b8083526020830192505050908051906020019080838360005b838110156100c45780820151818401526020810190506100a9565b50505050905090810190601f1680156100f15780820380516001836020036101000a031916815260200191505b506040526020018051906020019092919050505080600360006101000a81548173ffffffffffffffffffffffffffffffffffffffff021916908373ffffffffffffffffffffffffffffffffffffffff16021790555082600181905550505050610eda8061015f6000396000f3fe6080604052600436106100a75760003560e01c806381d12c581161006457806381d12c58146102d557806382fde093146103d55780638a9cfd5514610400578063937e09b1146104f2578063d7bb99ba1461051d578063d7d1bbdb14610527576100a7565b806303441006146100ac5780630a144391146100e75780633410452a146101505780634051ddac1461017b578063481c6a75146101ee5780638043c9c014610245575b600080fd5b3480156100b857600080fd5b506100e5600480360360208110156100cf57600080fd5b8101908080359060200190929190505050610562565b005b3480156100f357600080fd5b506101366004803603602081101561010a57600080fd5b81019080803573ffffffffffffffffffffffffffffffffffffffff1690602001909291905050506106d4565b604051808215151515815260200191505060405180910390f35b34801561015c57600080fd5b506101656106f4565b6040518082815260200191505060405180910390f35b34801561018757600080fd5b50610190610700565b604051808681526020018581526020018481526020018381526020018273ffffffffffffffffffffffffffffffffffffffff1673ffffffffffffffffffffffffffffffffffffffff1681526020019550505050505060405180910390f35b3480156101fa57600080fd5b50610203610760565b604051808273ffffffffffffffffffffffffffffffffffffffff1673ffffffffffffffffffffffffffffffffffffffff16815260200191505060405180910390f35b34801561025157600080fd5b5061025a610786565b6040518080602001828103825283818151815260200191508051906020019080838360005b8381101561029a57808201518184015260208101905061027f565b50505050905090810190601f1680156102c75780820380516001836020036101000a031916815260200191505b509250505060405180910390f35b3480156102e157600080fd5b5061030e600480360360208110156102f857600080fd5b8101908080359060200190929190505050610824565b60405180806020018681526020018573ffffffffffffffffffffffffffffffffffffffff1673ffffffffffffffffffffffffffffffffffffffff16815260200184151515158152602001838152602001828103825287818151815260200191508051906020019080838360005b8381101561039657808201518184015260208101905061037b565b50505050905090810190601f1680156103c35780820380516001836020036101000a031916815260200191505b50965050505050505060405180910390f35b3480156103e157600080fd5b506103ea61092c565b6040518082815260200191505060405180910390f35b34801561040c57600080fd5b506104f06004803603606081101561042357600080fd5b810190808035906020019064010000000081111561044057600080fd5b82018360208201111561045257600080fd5b8035906020019184600183028401116401000000008311171561047457600080fd5b91908080601f016020809104026020016040519081016040528093929190818152602001838380828437600081840152601f19601f82011690508083019250505050505050919291929080359060200190929190803573ffffffffffffffffffffffffffffffffffffffff169060200190929190505050610932565b005b3480156104fe57600080fd5b50610507610b7e565b6040518082815260200191505060405180910390f35b610525610b84565b005b34801561053357600080fd5b506105606004803603602081101561054a57600080fd5b8101908080359060200190929190505050610c37565b005b600360009054906101000a900473ffffffffffffffffffffffffffffffffffffffff1673ffffffffffffffffffffffffffffffffffffffff163373ffffffffffffffffffffffffffffffffffffffff16146105bc57600080fd5b60008082815481106105ca57fe5b906000526020600020906005020190506002600554816105e657fe5b048160030154116105f657600080fd5b8060020160149054906101000a900460ff161561061257600080fd5b3373ffffffffffffffffffffffffffffffffffffffff166108fc82600101549081150290604051600060405180830381858888f1935050505015801561065c573d6000803e3d6000fd5b5060018160020160146101000a81548160ff0219169083151502179055507fc1ca0eb759065bebf7234dc0d95fcf0b7dd993765528bbdba66b4f88f7c39e3f3373ffffffffffffffffffffffffffffffffffffffff163183604051808381526020018281526020019250505060405180910390a15050565b60046020528060005260406000206000915054906101000a900460ff1681565b60008080549050905090565b60008060008060006001543373ffffffffffffffffffffffffffffffffffffffff1631600080549050600554600360009054906101000a900473ffffffffffffffffffffffffffffffffffffffff16945094509450945094509091929394565b600360009054906101000a900473ffffffffffffffffffffffffffffffffffffffff1681565b60028054600181600116156101000203166002900480601f01602080910402602001604051908101604052809291908181526020018280546001816001161561010002031660029004801561081c5780601f106107f15761010080835404028352916020019161081c565b820191906000526020600020905b8154815290600101906020018083116107ff57829003601f168201915b505050505081565b6000818154811061083157fe5b9060005260206000209060050201600091509050806000018054600181600116156101000203166002900480601f0160208091040260200160405190810160405280929190818152602001828054600181600116156101000203166002900480156108dd5780601f106108b2576101008083540402835291602001916108dd565b820191906000526020600020905b8154815290600101906020018083116108c057829003601f168201915b5050505050908060010154908060020160009054906101000a900473ffffffffffffffffffffffffffffffffffffffff16908060020160149054906101000a900460ff16908060030154905085565b60055481565b600360009054906101000a900473ffffffffffffffffffffffffffffffffffffffff1673ffffffffffffffffffffffffffffffffffffffff163373ffffffffffffffffffffffffffffffffffffffff161461098c57600080fd5b610994610db9565b6040518060a001604052808581526020018481526020013373ffffffffffffffffffffffffffffffffffffffff168152602001600015158152602001600081525090507f498c8927f79e83ff0087f3307b5ab2c1d68e92e59be80151f55a5f8ab26e572384848460405180806020018481526020018373ffffffffffffffffffffffffffffffffffffffff1673ffffffffffffffffffffffffffffffffffffffff168152602001828103825285818151815260200191508051906020019080838360005b83811015610a73578082015181840152602081019050610a58565b50505050905090810190601f168015610aa05780820380516001836020036101000a031916815260200191505b5094505050505060405180910390a1600081908060018154018082558091505090600182039060005260206000209060050201600090919290919091506000820151816000019080519060200190610af9929190610e00565b506020820151816001015560408201518160020160006101000a81548173ffffffffffffffffffffffffffffffffffffffff021916908373ffffffffffffffffffffffffffffffffffffffff16021790555060608201518160020160146101000a81548160ff0219169083151502179055506080820151816003015550505050505050565b60015481565b6001543411610b9257600080fd5b6001600460003373ffffffffffffffffffffffffffffffffffffffff1673ffffffffffffffffffffffffffffffffffffffff16815260200190815260200160002060006101000a81548160ff0219169083151502179055506005600081548092919060010191905055507f6fd8ee30a2d0b1b588633a107055ab7349ac744fccc109e63e38b1fa7dc1f0fd6005546040518082815260200191505060405180910390a1565b6000808281548110610c4557fe5b90600052602060002090600502019050600460003373ffffffffffffffffffffffffffffffffffffffff1673ffffffffffffffffffffffffffffffffffffffff16815260200190815260200160002060009054906101000a900460ff16610cab57600080fd5b8060040160003373ffffffffffffffffffffffffffffffffffffffff1673ffffffffffffffffffffffffffffffffffffffff16815260200190815260200160002060009054906101000a900460ff1615610d0457600080fd5b60018160040160003373ffffffffffffffffffffffffffffffffffffffff1673ffffffffffffffffffffffffffffffffffffffff16815260200190815260200160002060006101000a81548160ff02191690831515021790555080600301600081548092919060010191905055507fc09dd73adfb92f1930a8f723eba769b70a398d42f3efb3ad126542e782361716828260030154604051808381526020018281526020019250505060405180910390a15050565b6040518060a001604052806060815260200160008152602001600073ffffffffffffffffffffffffffffffffffffffff168152602001600015158152602001600081525090565b828054600181600116156101000203166002900490600052602060002090601f016020900481019282601f10610e4157805160ff1916838001178555610e6f565b82800160010185558215610e6f579182015b82811115610e6e578251825591602001919060010190610e53565b5b509050610e7c9190610e80565b5090565b610ea291905b80821115610e9e576000816000905550600101610e86565b5090565b9056fea265627a7a723158208b88f6cf4dac1ac1292042c4c5f128798202976f88c01951db9da97791e39ba864736f6c634300050c0032a265627a7a72315820dd87724bc03d5d5b77fb77f10ed51ca5592e8c3b355af7c1a5150bff9d9bd91564736f6c634300050c0032",
  "source": "pragma solidity ^0.5.0;\n\ncontract AidTrace {\n\n  \n    \n   DonationEvent[] public deployedEvents;\n\n    function createEvent(uint minimum, string memory name) public {\n       DonationEvent newDonationEvent = new DonationEvent(minimum, name,msg.sender);\n        deployedEvents.push(newDonationEvent);\n    }\n\n    function getDeployedEvents() public view returns (DonationEvent[] memory) {\n        return deployedEvents;\n    }\n}\n\ncontract DonationEvent {\n        event LogContribute(uint _approvedCount);\n        event LogRequestCreated(string _description, uint _value, address _recipient);\n        event LogRequestApproved(uint _id, uint _approvalCount);\n        event LogFinalizedRequest(uint amount, uint _id);\n\n    struct Request {\n        string description;\n        uint value;\n        address recipient;\n        bool complete;\n        uint approvalCount;\n        mapping(address => bool) approvals;\n    }\n\n    Request[] public requests;\n    \n    uint public minimumContribution;\n    string public eventName;\n    address public manager;\n    mapping(address => bool) public approvers;\n    uint public approversCount;\n\n    modifier restricted() {\n        require(msg.sender == manager);\n        _;\n    }\n\n    constructor(uint minimum, string memory name, address creator) public {\n        manager = creator;\n        minimumContribution = minimum;\n    }\n\n    function contribute() public payable {\n        require(msg.value > minimumContribution);\n        \n        approvers[msg.sender] = true;\n        approversCount++;\n        emit LogContribute(approversCount);\n    }\n\n    function createRequest(string memory description , uint value, address recipient) public restricted {\n        Request memory newRequest = Request({\n           description: description,\n           value: value,\n           recipient: msg.sender,\n           complete: false,\n           approvalCount: 0\n        });\n        emit LogRequestCreated(description,value,recipient);\n        requests.push(newRequest);\n    }\n\n    function approveRequest(uint id) public {\n        Request storage request = requests[id];\n\n        require(approvers[msg.sender]);\n        require(!request.approvals[msg.sender]);\n        \n        request.approvals[msg.sender] = true;\n        request.approvalCount++;\n        emit LogRequestApproved(id, request.approvalCount);\n    }\n\n    function finalizeRequest(uint id) public restricted {\n        Request storage request = requests[id];\n\n        require(request.approvalCount > (approversCount / 2));\n        require(!request.complete);\n        \n        msg.sender.transfer(request.value);\n        request.complete = true;\n        emit LogFinalizedRequest(address(msg.sender).balance, id);\n    }\n\n    function getSummary() public view returns (\n      uint, uint, uint, uint, address\n      ) {\n        return (\n          minimumContribution,\n          address(msg.sender).balance,\n          requests.length,\n          approversCount,\n          manager\n        );\n    }\n\n    function getRequestsCount() public view returns (uint) {\n        return requests.length;\n    }\n}",
  "sourcePath": "/Users/leefaria/Documents/Code/AidTrace/AidTrace/contracts/AidTrace.sol",
  "compiler": {
    "name": "solc",
    "version": "0.5.12+commit.7709ece9.Emscripten.clang"
  },
  "schemaVersion": "3.0.18",
  "updatedAt": "2019-12-07T22:53:03.216Z",
  "devdoc": {
    "methods": {}
  },
  "userdoc": {
    "methods": {}
  }
}